{
  "_format": "hh-sol-artifact-1",
  "contractName": "Contract",
  "sourceName": "contracts/Contract.sol",
  "abi": [
    {
      "inputs": [
        {
          "internalType": "string",
          "name": "_name",
          "type": "string"
        }
      ],
      "stateMutability": "nonpayable",
      "type": "constructor"
    },
    {
      "anonymous": false,
      "inputs": [
        {
          "indexed": true,
          "internalType": "string",
          "name": "paymentId",
          "type": "string"
        },
        {
          "indexed": false,
          "internalType": "uint256",
          "name": "amountInWei",
          "type": "uint256"
        }
      ],
      "name": "Locked",
      "type": "event"
    },
    {
      "anonymous": false,
      "inputs": [
        {
          "indexed": true,
          "internalType": "address",
          "name": "previousOwner",
          "type": "address"
        },
        {
          "indexed": true,
          "internalType": "address",
          "name": "newOwner",
          "type": "address"
        }
      ],
      "name": "OwnershipTransferred",
      "type": "event"
    },
    {
      "anonymous": false,
      "inputs": [
        {
          "indexed": true,
          "internalType": "string",
          "name": "paymentId",
          "type": "string"
        },
        {
          "indexed": true,
          "internalType": "address",
          "name": "sender",
          "type": "address"
        },
        {
          "indexed": true,
          "internalType": "address",
          "name": "receiver",
          "type": "address"
        },
        {
          "indexed": false,
          "internalType": "uint256",
          "name": "amountInWei",
          "type": "uint256"
        },
        {
          "indexed": false,
          "internalType": "uint256",
          "name": "fiat",
          "type": "uint256"
        }
      ],
      "name": "Recorded",
      "type": "event"
    },
    {
      "anonymous": false,
      "inputs": [
        {
          "indexed": true,
          "internalType": "string",
          "name": "paymentId",
          "type": "string"
        },
        {
          "indexed": true,
          "internalType": "address",
          "name": "sender",
          "type": "address"
        },
        {
          "indexed": true,
          "internalType": "address",
          "name": "receiver",
          "type": "address"
        },
        {
          "indexed": false,
          "internalType": "uint256",
          "name": "amountInWei",
          "type": "uint256"
        },
        {
          "indexed": false,
          "internalType": "uint256",
          "name": "fiat",
          "type": "uint256"
        }
      ],
      "name": "Released",
      "type": "event"
    },
    {
      "inputs": [
        {
          "internalType": "string",
          "name": "_paymentId",
          "type": "string"
        },
        {
          "internalType": "address",
          "name": "_sender",
          "type": "address"
        },
        {
          "internalType": "address",
          "name": "_receiver",
          "type": "address"
        },
        {
          "internalType": "uint256",
          "name": "_amountInWei",
          "type": "uint256"
        },
        {
          "internalType": "uint256",
          "name": "_fiat",
          "type": "uint256"
        }
      ],
      "name": "createRecord",
      "outputs": [],
      "stateMutability": "nonpayable",
      "type": "function"
    },
    {
      "inputs": [],
      "name": "getName",
      "outputs": [
        {
          "internalType": "string",
          "name": "",
          "type": "string"
        }
      ],
      "stateMutability": "view",
      "type": "function"
    },
    {
      "inputs": [
        {
          "internalType": "string",
          "name": "_paymentId",
          "type": "string"
        }
      ],
      "name": "getTransactionById",
      "outputs": [
        {
          "components": [
            {
              "internalType": "address",
              "name": "sender",
              "type": "address"
            },
            {
              "internalType": "address",
              "name": "receiver",
              "type": "address"
            },
            {
              "internalType": "uint256",
              "name": "amountInWei",
              "type": "uint256"
            },
            {
              "internalType": "uint256",
              "name": "fiat",
              "type": "uint256"
            },
            {
              "internalType": "bool",
              "name": "locked",
              "type": "bool"
            },
            {
              "internalType": "bool",
              "name": "released",
              "type": "bool"
            }
          ],
          "internalType": "struct Contract.transaction",
          "name": "",
          "type": "tuple"
        }
      ],
      "stateMutability": "view",
      "type": "function"
    },
    {
      "inputs": [
        {
          "internalType": "string",
          "name": "_paymentId",
          "type": "string"
        }
      ],
      "name": "lockFund",
      "outputs": [],
      "stateMutability": "payable",
      "type": "function"
    },
    {
      "inputs": [],
      "name": "name",
      "outputs": [
        {
          "internalType": "string",
          "name": "",
          "type": "string"
        }
      ],
      "stateMutability": "view",
      "type": "function"
    },
    {
      "inputs": [],
      "name": "owner",
      "outputs": [
        {
          "internalType": "address",
          "name": "",
          "type": "address"
        }
      ],
      "stateMutability": "view",
      "type": "function"
    },
    {
      "inputs": [
        {
          "internalType": "string",
          "name": "_paymentId",
          "type": "string"
        }
      ],
      "name": "releaseFund",
      "outputs": [],
      "stateMutability": "nonpayable",
      "type": "function"
    },
    {
      "inputs": [],
      "name": "renounceOwnership",
      "outputs": [],
      "stateMutability": "nonpayable",
      "type": "function"
    },
    {
      "inputs": [],
      "name": "totalAmount",
      "outputs": [
        {
          "internalType": "uint256",
          "name": "",
          "type": "uint256"
        }
      ],
      "stateMutability": "view",
      "type": "function"
    },
    {
      "inputs": [
        {
          "internalType": "address",
          "name": "newOwner",
          "type": "address"
        }
      ],
      "name": "transferOwnership",
      "outputs": [],
      "stateMutability": "nonpayable",
      "type": "function"
    },
    {
      "inputs": [
        {
          "internalType": "string",
          "name": "",
          "type": "string"
        }
      ],
      "name": "trxs",
      "outputs": [
        {
          "internalType": "address",
          "name": "sender",
          "type": "address"
        },
        {
          "internalType": "address",
          "name": "receiver",
          "type": "address"
        },
        {
          "internalType": "uint256",
          "name": "amountInWei",
          "type": "uint256"
        },
        {
          "internalType": "uint256",
          "name": "fiat",
          "type": "uint256"
        },
        {
          "internalType": "bool",
          "name": "locked",
          "type": "bool"
        },
        {
          "internalType": "bool",
          "name": "released",
          "type": "bool"
        }
      ],
      "stateMutability": "view",
      "type": "function"
    }
  ],
  "bytecode": "0x60806040523480156200001157600080fd5b50604051620023a2380380620023a283398181016040528101906200003791906200026d565b620000576200004b6200007f60201b60201c565b6200008760201b60201c565b80600190805190602001906200006f9291906200014b565b5060006002819055505062000422565b600033905090565b60008060009054906101000a900473ffffffffffffffffffffffffffffffffffffffff169050816000806101000a81548173ffffffffffffffffffffffffffffffffffffffff021916908373ffffffffffffffffffffffffffffffffffffffff1602179055508173ffffffffffffffffffffffffffffffffffffffff168173ffffffffffffffffffffffffffffffffffffffff167f8be0079c531659141344cd1fd0a4f28419497f9722a3daafe3b4186f6b6457e060405160405180910390a35050565b828054620001599062000347565b90600052602060002090601f0160209004810192826200017d5760008555620001c9565b82601f106200019857805160ff1916838001178555620001c9565b82800160010185558215620001c9579182015b82811115620001c8578251825591602001919060010190620001ab565b5b509050620001d89190620001dc565b5090565b5b80821115620001f7576000816000905550600101620001dd565b5090565b6000620002126200020c84620002db565b620002b2565b9050828152602081018484840111156200022b57600080fd5b6200023884828562000311565b509392505050565b600082601f8301126200025257600080fd5b815162000264848260208601620001fb565b91505092915050565b6000602082840312156200028057600080fd5b600082015167ffffffffffffffff8111156200029b57600080fd5b620002a98482850162000240565b91505092915050565b6000620002be620002d1565b9050620002cc82826200037d565b919050565b6000604051905090565b600067ffffffffffffffff821115620002f957620002f8620003e2565b5b620003048262000411565b9050602081019050919050565b60005b838110156200033157808201518184015260208101905062000314565b8381111562000341576000848401525b50505050565b600060028204905060018216806200036057607f821691505b60208210811415620003775762000376620003b3565b5b50919050565b620003888262000411565b810181811067ffffffffffffffff82111715620003aa57620003a9620003e2565b5b80604052505050565b7f4e487b7100000000000000000000000000000000000000000000000000000000600052602260045260246000fd5b7f4e487b7100000000000000000000000000000000000000000000000000000000600052604160045260246000fd5b6000601f19601f8301169050919050565b611f7080620004326000396000f3fe60806040526004361061009c5760003560e01c80638da5cb5b116100645780638da5cb5b146101555780639ff16eb714610180578063d93475cd146101bd578063f052d77e146101e6578063f22bb47014610228578063f2fde38b146102515761009c565b806306fdde03146100a157806317d7de7c146100cc5780631a39d8ef146100f7578063715018a6146101225780637490d13514610139575b600080fd5b3480156100ad57600080fd5b506100b661027a565b6040516100c391906117d2565b60405180910390f35b3480156100d857600080fd5b506100e1610308565b6040516100ee91906117d2565b60405180910390f35b34801561010357600080fd5b5061010c61039a565b60405161011991906119af565b60405180910390f35b34801561012e57600080fd5b506101376103a0565b005b610153600480360381019061014e9190611369565b6103b4565b005b34801561016157600080fd5b5061016a6106c4565b6040516101779190611756565b60405180910390f35b34801561018c57600080fd5b506101a760048036038101906101a29190611369565b6106ed565b6040516101b49190611994565b60405180910390f35b3480156101c957600080fd5b506101e460048036038101906101df9190611369565b61081b565b005b3480156101f257600080fd5b5061020d60048036038101906102089190611369565b610bd8565b60405161021f96959493929190611771565b60405180910390f35b34801561023457600080fd5b5061024f600480360381019061024a91906113aa565b610c84565b005b34801561025d57600080fd5b5061027860048036038101906102739190611340565b61107a565b005b6001805461028790611b84565b80601f01602080910402602001604051908101604052809291908181526020018280546102b390611b84565b80156103005780601f106102d557610100808354040283529160200191610300565b820191906000526020600020905b8154815290600101906020018083116102e357829003601f168201915b505050505081565b60606001805461031790611b84565b80601f016020809104026020016040519081016040528092919081815260200182805461034390611b84565b80156103905780601f1061036557610100808354040283529160200191610390565b820191906000526020600020905b81548152906001019060200180831161037357829003601f168201915b5050505050905090565b60025481565b6103a86110fe565b6103b2600061117c565b565b60006003826040516103c6919061173f565b90815260200160405180910390206002015411610418576040517f08c379a000000000000000000000000000000000000000000000000000000000815260040161040f90611834565b60405180910390fd5b600381604051610428919061173f565b908152602001604051809103902060000160009054906101000a900473ffffffffffffffffffffffffffffffffffffffff1673ffffffffffffffffffffffffffffffffffffffff163373ffffffffffffffffffffffffffffffffffffffff16146104c7576040517f08c379a00000000000000000000000000000000000000000000000000000000081526004016104be906118d4565b60405180910390fd5b6003816040516104d7919061173f565b908152602001604051809103902060020154341461052a576040517f08c379a000000000000000000000000000000000000000000000000000000000815260040161052190611894565b60405180910390fd5b6000151560003373ffffffffffffffffffffffffffffffffffffffff163b1115151461058b576040517f08c379a000000000000000000000000000000000000000000000000000000000815260040161058290611974565b60405180910390fd5b6000151560038260405161059f919061173f565b908152602001604051809103902060040160009054906101000a900460ff16151514610600576040517f08c379a00000000000000000000000000000000000000000000000000000000081526004016105f790611854565b60405180910390fd5b34600260008282546106129190611a70565b92505081905550600160038260405161062b919061173f565b908152602001604051809103902060040160006101000a81548160ff02191690831515021790555080604051610661919061173f565b60405180910390207fadecaf51ffc29f5de9b837a15addec7971ea840946c6b3c9b19b412d63690de960038360405161069a919061173f565b9081526020016040518091039020600201546040516106b991906119af565b60405180910390a250565b60008060009054906101000a900473ffffffffffffffffffffffffffffffffffffffff16905090565b6106f5611248565b600382604051610705919061173f565b90815260200160405180910390206040518060c00160405290816000820160009054906101000a900473ffffffffffffffffffffffffffffffffffffffff1673ffffffffffffffffffffffffffffffffffffffff1673ffffffffffffffffffffffffffffffffffffffff1681526020016001820160009054906101000a900473ffffffffffffffffffffffffffffffffffffffff1673ffffffffffffffffffffffffffffffffffffffff1673ffffffffffffffffffffffffffffffffffffffff16815260200160028201548152602001600382015481526020016004820160009054906101000a900460ff161515151581526020016004820160019054906101000a900460ff1615151515815250509050919050565b6108236110fe565b6000600382604051610835919061173f565b90815260200160405180910390206002015411610887576040517f08c379a000000000000000000000000000000000000000000000000000000000815260040161087e90611834565b60405180910390fd5b6001151560038260405161089b919061173f565b908152602001604051809103902060040160009054906101000a900460ff161515146108fc576040517f08c379a00000000000000000000000000000000000000000000000000000000081526004016108f390611814565b60405180910390fd5b60001515600382604051610910919061173f565b908152602001604051809103902060040160019054906101000a900460ff16151514610971576040517f08c379a000000000000000000000000000000000000000000000000000000000815260040161096890611814565b60405180910390fd5b6000600382604051610983919061173f565b908152602001604051809103902060010160009054906101000a900473ffffffffffffffffffffffffffffffffffffffff1690508073ffffffffffffffffffffffffffffffffffffffff166108fc6003846040516109e1919061173f565b9081526020016040518091039020600201549081150290604051600060405180830381858888f19350505050158015610a1e573d6000803e3d6000fd5b50600382604051610a2f919061173f565b90815260200160405180910390206002015460026000828254610a529190611ac6565b925050819055506001600383604051610a6b919061173f565b908152602001604051809103902060040160016101000a81548160ff021916908315150217905550600382604051610aa3919061173f565b908152602001604051809103902060010160009054906101000a900473ffffffffffffffffffffffffffffffffffffffff1673ffffffffffffffffffffffffffffffffffffffff16600383604051610afb919061173f565b908152602001604051809103902060000160009054906101000a900473ffffffffffffffffffffffffffffffffffffffff1673ffffffffffffffffffffffffffffffffffffffff1683604051610b51919061173f565b60405180910390207feababff11cba4a9899c08eb59d5d4470cd35e5df81a249c7aca4ea8b388e7fe4600386604051610b8a919061173f565b908152602001604051809103902060020154600387604051610bac919061173f565b908152602001604051809103902060030154604051610bcc9291906119ca565b60405180910390a45050565b6003818051602081018201805184825260208301602085012081835280955050505050506000915090508060000160009054906101000a900473ffffffffffffffffffffffffffffffffffffffff16908060010160009054906101000a900473ffffffffffffffffffffffffffffffffffffffff16908060020154908060030154908060040160009054906101000a900460ff16908060040160019054906101000a900460ff16905086565b610c8c6110fe565b600073ffffffffffffffffffffffffffffffffffffffff168473ffffffffffffffffffffffffffffffffffffffff1614158015610cf65750600073ffffffffffffffffffffffffffffffffffffffff168373ffffffffffffffffffffffffffffffffffffffff1614155b610d35576040517f08c379a0000000000000000000000000000000000000000000000000000000008152600401610d2c906117f4565b60405180910390fd5b6000600386604051610d47919061173f565b90815260200160405180910390206002015414610d99576040517f08c379a0000000000000000000000000000000000000000000000000000000008152600401610d9090611954565b60405180910390fd5b8273ffffffffffffffffffffffffffffffffffffffff168473ffffffffffffffffffffffffffffffffffffffff161415610e08576040517f08c379a0000000000000000000000000000000000000000000000000000000008152600401610dff906118b4565b60405180910390fd5b60008211610e4b576040517f08c379a0000000000000000000000000000000000000000000000000000000008152600401610e42906118f4565b60405180910390fd5b60008111610e8e576040517f08c379a0000000000000000000000000000000000000000000000000000000008152600401610e8590611914565b60405180910390fd5b60006040518060c001604052808673ffffffffffffffffffffffffffffffffffffffff1681526020018573ffffffffffffffffffffffffffffffffffffffff16815260200184815260200183815260200160001515815260200160001515815250905080600387604051610f02919061173f565b908152602001604051809103902060008201518160000160006101000a81548173ffffffffffffffffffffffffffffffffffffffff021916908373ffffffffffffffffffffffffffffffffffffffff16021790555060208201518160010160006101000a81548173ffffffffffffffffffffffffffffffffffffffff021916908373ffffffffffffffffffffffffffffffffffffffff160217905550604082015181600201556060820151816003015560808201518160040160006101000a81548160ff02191690831515021790555060a08201518160040160016101000a81548160ff0219169083151502179055509050508373ffffffffffffffffffffffffffffffffffffffff168573ffffffffffffffffffffffffffffffffffffffff1687604051611031919061173f565b60405180910390207fbfd83a7c8060095b33f45e67c031482c70b7902717290b110387f41966626b27868660405161106a9291906119ca565b60405180910390a4505050505050565b6110826110fe565b600073ffffffffffffffffffffffffffffffffffffffff168173ffffffffffffffffffffffffffffffffffffffff1614156110f2576040517f08c379a00000000000000000000000000000000000000000000000000000000081526004016110e990611874565b60405180910390fd5b6110fb8161117c565b50565b611106611240565b73ffffffffffffffffffffffffffffffffffffffff166111246106c4565b73ffffffffffffffffffffffffffffffffffffffff161461117a576040517f08c379a000000000000000000000000000000000000000000000000000000000815260040161117190611934565b60405180910390fd5b565b60008060009054906101000a900473ffffffffffffffffffffffffffffffffffffffff169050816000806101000a81548173ffffffffffffffffffffffffffffffffffffffff021916908373ffffffffffffffffffffffffffffffffffffffff1602179055508173ffffffffffffffffffffffffffffffffffffffff168173ffffffffffffffffffffffffffffffffffffffff167f8be0079c531659141344cd1fd0a4f28419497f9722a3daafe3b4186f6b6457e060405160405180910390a35050565b600033905090565b6040518060c00160405280600073ffffffffffffffffffffffffffffffffffffffff168152602001600073ffffffffffffffffffffffffffffffffffffffff16815260200160008152602001600081526020016000151581526020016000151581525090565b60006112c16112bc84611a18565b6119f3565b9050828152602081018484840111156112d957600080fd5b6112e4848285611b42565b509392505050565b6000813590506112fb81611f0c565b92915050565b600082601f83011261131257600080fd5b81356113228482602086016112ae565b91505092915050565b60008135905061133a81611f23565b92915050565b60006020828403121561135257600080fd5b6000611360848285016112ec565b91505092915050565b60006020828403121561137b57600080fd5b600082013567ffffffffffffffff81111561139557600080fd5b6113a184828501611301565b91505092915050565b600080600080600060a086880312156113c257600080fd5b600086013567ffffffffffffffff8111156113dc57600080fd5b6113e888828901611301565b95505060206113f9888289016112ec565b945050604061140a888289016112ec565b935050606061141b8882890161132b565b925050608061142c8882890161132b565b9150509295509295909350565b61144281611afa565b82525050565b61145181611afa565b82525050565b61146081611b0c565b82525050565b61146f81611b0c565b82525050565b600061148082611a49565b61148a8185611a54565b935061149a818560208601611b51565b6114a381611c74565b840191505092915050565b60006114b982611a49565b6114c38185611a65565b93506114d3818560208601611b51565b80840191505092915050565b60006114ec602983611a54565b91506114f782611c85565b604082019050919050565b600061150f601b83611a54565b915061151a82611cd4565b602082019050919050565b6000611532601083611a54565b915061153d82611cfd565b602082019050919050565b6000611555601c83611a54565b915061156082611d26565b602082019050919050565b6000611578602683611a54565b915061158382611d4f565b604082019050919050565b600061159b600e83611a54565b91506115a682611d9e565b602082019050919050565b60006115be602f83611a54565b91506115c982611dc7565b604082019050919050565b60006115e1600e83611a54565b91506115ec82611e16565b602082019050919050565b6000611604601583611a54565b915061160f82611e3f565b602082019050919050565b6000611627601983611a54565b915061163282611e68565b602082019050919050565b600061164a602083611a54565b915061165582611e91565b602082019050919050565b600061166d601f83611a54565b915061167882611eba565b602082019050919050565b6000611690601b83611a54565b915061169b82611ee3565b602082019050919050565b60c0820160008201516116bc6000850182611439565b5060208201516116cf6020850182611439565b5060408201516116e26040850182611721565b5060608201516116f56060850182611721565b5060808201516117086080850182611457565b5060a082015161171b60a0850182611457565b50505050565b61172a81611b38565b82525050565b61173981611b38565b82525050565b600061174b82846114ae565b915081905092915050565b600060208201905061176b6000830184611448565b92915050565b600060c0820190506117866000830189611448565b6117936020830188611448565b6117a06040830187611730565b6117ad6060830186611730565b6117ba6080830185611466565b6117c760a0830184611466565b979650505050505050565b600060208201905081810360008301526117ec8184611475565b905092915050565b6000602082019050818103600083015261180d816114df565b9050919050565b6000602082019050818103600083015261182d81611502565b9050919050565b6000602082019050818103600083015261184d81611525565b9050919050565b6000602082019050818103600083015261186d81611548565b9050919050565b6000602082019050818103600083015261188d8161156b565b9050919050565b600060208201905081810360008301526118ad8161158e565b9050919050565b600060208201905081810360008301526118cd816115b1565b9050919050565b600060208201905081810360008301526118ed816115d4565b9050919050565b6000602082019050818103600083015261190d816115f7565b9050919050565b6000602082019050818103600083015261192d8161161a565b9050919050565b6000602082019050818103600083015261194d8161163d565b9050919050565b6000602082019050818103600083015261196d81611660565b9050919050565b6000602082019050818103600083015261198d81611683565b9050919050565b600060c0820190506119a960008301846116a6565b92915050565b60006020820190506119c46000830184611730565b92915050565b60006040820190506119df6000830185611730565b6119ec6020830184611730565b9392505050565b60006119fd611a0e565b9050611a098282611bb6565b919050565b6000604051905090565b600067ffffffffffffffff821115611a3357611a32611c45565b5b611a3c82611c74565b9050602081019050919050565b600081519050919050565b600082825260208201905092915050565b600081905092915050565b6000611a7b82611b38565b9150611a8683611b38565b9250827fffffffffffffffffffffffffffffffffffffffffffffffffffffffffffffffff03821115611abb57611aba611be7565b5b828201905092915050565b6000611ad182611b38565b9150611adc83611b38565b925082821015611aef57611aee611be7565b5b828203905092915050565b6000611b0582611b18565b9050919050565b60008115159050919050565b600073ffffffffffffffffffffffffffffffffffffffff82169050919050565b6000819050919050565b82818337600083830152505050565b60005b83811015611b6f578082015181840152602081019050611b54565b83811115611b7e576000848401525b50505050565b60006002820490506001821680611b9c57607f821691505b60208210811415611bb057611baf611c16565b5b50919050565b611bbf82611c74565b810181811067ffffffffffffffff82111715611bde57611bdd611c45565b5b80604052505050565b7f4e487b7100000000000000000000000000000000000000000000000000000000600052601160045260246000fd5b7f4e487b7100000000000000000000000000000000000000000000000000000000600052602260045260246000fd5b7f4e487b7100000000000000000000000000000000000000000000000000000000600052604160045260246000fd5b6000601f19601f8301169050919050565b7f53656e646572206f722072656365697665722063616e6e6f74206265207a657260008201527f6f20616464726573730000000000000000000000000000000000000000000000602082015250565b7f4572726f7220696e207472616e73616374696f6e207374617475730000000000600082015250565b7f5265636f7264206e6f7420666f756e6400000000000000000000000000000000600082015250565b7f46756e642068617320616c7265616479206265656e206c6f636b656400000000600082015250565b7f4f776e61626c653a206e6577206f776e657220697320746865207a65726f206160008201527f6464726573730000000000000000000000000000000000000000000000000000602082015250565b7f496e76616c696420616d6f756e74000000000000000000000000000000000000600082015250565b7f53656e64657220616e64207265636569766572206d757374206265206469666660008201527f6572656e74206164647265737365730000000000000000000000000000000000602082015250565b7f496e76616c69642073656e646572000000000000000000000000000000000000600082015250565b7f416d6f756e742063616e6e6f74206265207a65726f0000000000000000000000600082015250565b7f466961742076616c75652063616e6e6f74206265207a65726f00000000000000600082015250565b7f4f776e61626c653a2063616c6c6572206973206e6f7420746865206f776e6572600082015250565b7f5265636f726420616c726561647920686173206265656e206372656174656400600082015250565b7f43616c6c65722063616e6e6f74206265206120636f6e74726163740000000000600082015250565b611f1581611afa565b8114611f2057600080fd5b50565b611f2c81611b38565b8114611f3757600080fd5b5056fea2646970667358221220a46b51764d1022d59a67390ba5f7133692ab818e357811023daa19393da4ccf264736f6c63430008040033",
  "linkReferences": {},
  "deployedLinkReferences": {}
}