{
  "_format": "hh-sol-artifact-1",
  "contractName": "Contract",
  "sourceName": "contracts/Contract.sol",
  "abi": [
    {
      "inputs": [
        {
          "internalType": "string",
          "name": "_name",
          "type": "string"
        }
      ],
      "stateMutability": "nonpayable",
      "type": "constructor"
    },
    {
      "anonymous": false,
      "inputs": [
        {
          "indexed": true,
          "internalType": "uint256",
          "name": "paymentId",
          "type": "uint256"
        },
        {
          "indexed": false,
          "internalType": "uint256",
          "name": "amountInWei",
          "type": "uint256"
        }
      ],
      "name": "Locked",
      "type": "event"
    },
    {
      "anonymous": false,
      "inputs": [
        {
          "indexed": true,
          "internalType": "address",
          "name": "previousOwner",
          "type": "address"
        },
        {
          "indexed": true,
          "internalType": "address",
          "name": "newOwner",
          "type": "address"
        }
      ],
      "name": "OwnershipTransferred",
      "type": "event"
    },
    {
      "anonymous": false,
      "inputs": [
        {
          "indexed": true,
          "internalType": "uint256",
          "name": "paymentId",
          "type": "uint256"
        },
        {
          "indexed": true,
          "internalType": "address",
          "name": "sender",
          "type": "address"
        },
        {
          "indexed": true,
          "internalType": "address",
          "name": "receiver",
          "type": "address"
        },
        {
          "indexed": false,
          "internalType": "uint256",
          "name": "amountInWei",
          "type": "uint256"
        },
        {
          "indexed": false,
          "internalType": "uint256",
          "name": "fiat",
          "type": "uint256"
        }
      ],
      "name": "Recorded",
      "type": "event"
    },
    {
      "anonymous": false,
      "inputs": [
        {
          "indexed": true,
          "internalType": "uint256",
          "name": "paymentId",
          "type": "uint256"
        },
        {
          "indexed": true,
          "internalType": "address",
          "name": "sender",
          "type": "address"
        },
        {
          "indexed": true,
          "internalType": "address",
          "name": "receiver",
          "type": "address"
        },
        {
          "indexed": false,
          "internalType": "uint256",
          "name": "amountInWei",
          "type": "uint256"
        },
        {
          "indexed": false,
          "internalType": "uint256",
          "name": "fiat",
          "type": "uint256"
        }
      ],
      "name": "Released",
      "type": "event"
    },
    {
      "inputs": [
        {
          "internalType": "uint256",
          "name": "_paymentId",
          "type": "uint256"
        },
        {
          "internalType": "address",
          "name": "_sender",
          "type": "address"
        },
        {
          "internalType": "address",
          "name": "_receiver",
          "type": "address"
        },
        {
          "internalType": "uint256",
          "name": "_amountInWei",
          "type": "uint256"
        },
        {
          "internalType": "uint256",
          "name": "_fiat",
          "type": "uint256"
        }
      ],
      "name": "createRecord",
      "outputs": [],
      "stateMutability": "nonpayable",
      "type": "function"
    },
    {
      "inputs": [],
      "name": "getName",
      "outputs": [
        {
          "internalType": "string",
          "name": "",
          "type": "string"
        }
      ],
      "stateMutability": "view",
      "type": "function"
    },
    {
      "inputs": [
        {
          "internalType": "uint256",
          "name": "_paymentId",
          "type": "uint256"
        }
      ],
      "name": "getTransactionById",
      "outputs": [
        {
          "components": [
            {
              "internalType": "address",
              "name": "sender",
              "type": "address"
            },
            {
              "internalType": "address",
              "name": "receiver",
              "type": "address"
            },
            {
              "internalType": "uint256",
              "name": "amountInWei",
              "type": "uint256"
            },
            {
              "internalType": "uint256",
              "name": "fiat",
              "type": "uint256"
            },
            {
              "internalType": "bool",
              "name": "locked",
              "type": "bool"
            },
            {
              "internalType": "bool",
              "name": "released",
              "type": "bool"
            }
          ],
          "internalType": "struct Contract.transaction",
          "name": "",
          "type": "tuple"
        }
      ],
      "stateMutability": "view",
      "type": "function"
    },
    {
      "inputs": [
        {
          "internalType": "uint256",
          "name": "_paymentId",
          "type": "uint256"
        }
      ],
      "name": "lockFund",
      "outputs": [],
      "stateMutability": "payable",
      "type": "function"
    },
    {
      "inputs": [],
      "name": "name",
      "outputs": [
        {
          "internalType": "string",
          "name": "",
          "type": "string"
        }
      ],
      "stateMutability": "view",
      "type": "function"
    },
    {
      "inputs": [],
      "name": "owner",
      "outputs": [
        {
          "internalType": "address",
          "name": "",
          "type": "address"
        }
      ],
      "stateMutability": "view",
      "type": "function"
    },
    {
      "inputs": [
        {
          "internalType": "uint256",
          "name": "_paymentId",
          "type": "uint256"
        }
      ],
      "name": "releaseFund",
      "outputs": [],
      "stateMutability": "nonpayable",
      "type": "function"
    },
    {
      "inputs": [],
      "name": "renounceOwnership",
      "outputs": [],
      "stateMutability": "nonpayable",
      "type": "function"
    },
    {
      "inputs": [],
      "name": "totalAmount",
      "outputs": [
        {
          "internalType": "uint256",
          "name": "",
          "type": "uint256"
        }
      ],
      "stateMutability": "view",
      "type": "function"
    },
    {
      "inputs": [
        {
          "internalType": "address",
          "name": "newOwner",
          "type": "address"
        }
      ],
      "name": "transferOwnership",
      "outputs": [],
      "stateMutability": "nonpayable",
      "type": "function"
    },
    {
      "inputs": [
        {
          "internalType": "uint256",
          "name": "",
          "type": "uint256"
        }
      ],
      "name": "trxs",
      "outputs": [
        {
          "internalType": "address",
          "name": "sender",
          "type": "address"
        },
        {
          "internalType": "address",
          "name": "receiver",
          "type": "address"
        },
        {
          "internalType": "uint256",
          "name": "amountInWei",
          "type": "uint256"
        },
        {
          "internalType": "uint256",
          "name": "fiat",
          "type": "uint256"
        },
        {
          "internalType": "bool",
          "name": "locked",
          "type": "bool"
        },
        {
          "internalType": "bool",
          "name": "released",
          "type": "bool"
        }
      ],
      "stateMutability": "view",
      "type": "function"
    }
  ],
  "bytecode": "0x60806040523480156200001157600080fd5b50604051620020c1380380620020c183398181016040528101906200003791906200026d565b620000576200004b6200007f60201b60201c565b6200008760201b60201c565b80600190805190602001906200006f9291906200014b565b5060006002819055505062000422565b600033905090565b60008060009054906101000a900473ffffffffffffffffffffffffffffffffffffffff169050816000806101000a81548173ffffffffffffffffffffffffffffffffffffffff021916908373ffffffffffffffffffffffffffffffffffffffff1602179055508173ffffffffffffffffffffffffffffffffffffffff168173ffffffffffffffffffffffffffffffffffffffff167f8be0079c531659141344cd1fd0a4f28419497f9722a3daafe3b4186f6b6457e060405160405180910390a35050565b828054620001599062000347565b90600052602060002090601f0160209004810192826200017d5760008555620001c9565b82601f106200019857805160ff1916838001178555620001c9565b82800160010185558215620001c9579182015b82811115620001c8578251825591602001919060010190620001ab565b5b509050620001d89190620001dc565b5090565b5b80821115620001f7576000816000905550600101620001dd565b5090565b6000620002126200020c84620002db565b620002b2565b9050828152602081018484840111156200022b57600080fd5b6200023884828562000311565b509392505050565b600082601f8301126200025257600080fd5b815162000264848260208601620001fb565b91505092915050565b6000602082840312156200028057600080fd5b600082015167ffffffffffffffff8111156200029b57600080fd5b620002a98482850162000240565b91505092915050565b6000620002be620002d1565b9050620002cc82826200037d565b919050565b6000604051905090565b600067ffffffffffffffff821115620002f957620002f8620003e2565b5b620003048262000411565b9050602081019050919050565b60005b838110156200033157808201518184015260208101905062000314565b8381111562000341576000848401525b50505050565b600060028204905060018216806200036057607f821691505b60208210811415620003775762000376620003b3565b5b50919050565b620003888262000411565b810181811067ffffffffffffffff82111715620003aa57620003a9620003e2565b5b80604052505050565b7f4e487b7100000000000000000000000000000000000000000000000000000000600052602260045260246000fd5b7f4e487b7100000000000000000000000000000000000000000000000000000000600052604160045260246000fd5b6000601f19601f8301169050919050565b611c8f80620004326000396000f3fe60806040526004361061009c5760003560e01c806380654d9f1161006457806380654d9f146101555780638da5cb5b1461017e57806397d22477146101a9578063c7f93fac146101d2578063f2fde38b14610214578063f4b30eaf1461023d5761009c565b806306fdde03146100a157806317d7de7c146100cc5780631a39d8ef146100f75780633ba2a67e14610122578063715018a61461013e575b600080fd5b3480156100ad57600080fd5b506100b661027a565b6040516100c391906115c1565b60405180910390f35b3480156100d857600080fd5b506100e1610308565b6040516100ee91906115c1565b60405180910390f35b34801561010357600080fd5b5061010c61039a565b604051610119919061179e565b60405180910390f35b61013c600480360381019061013791906111d0565b6103a0565b005b34801561014a57600080fd5b50610153610659565b005b34801561016157600080fd5b5061017c600480360381019061017791906111f9565b61066d565b005b34801561018a57600080fd5b50610193610a38565b6040516101a09190611545565b60405180910390f35b3480156101b557600080fd5b506101d060048036038101906101cb91906111d0565b610a61565b005b3480156101de57600080fd5b506101f960048036038101906101f491906111d0565b610d90565b60405161020b96959493929190611560565b60405180910390f35b34801561022057600080fd5b5061023b600480360381019061023691906111a7565b610e26565b005b34801561024957600080fd5b50610264600480360381019061025f91906111d0565b610eaa565b6040516102719190611783565b60405180910390f35b6001805461028790611903565b80601f01602080910402602001604051908101604052809291908181526020018280546102b390611903565b80156103005780601f106102d557610100808354040283529160200191610300565b820191906000526020600020905b8154815290600101906020018083116102e357829003601f168201915b505050505081565b60606001805461031790611903565b80601f016020809104026020016040519081016040528092919081815260200182805461034390611903565b80156103905780601f1061036557610100808354040283529160200191610390565b820191906000526020600020905b81548152906001019060200180831161037357829003601f168201915b5050505050905090565b60025481565b60006003600083815260200190815260200160002060020154116103f9576040517f08c379a00000000000000000000000000000000000000000000000000000000081526004016103f090611623565b60405180910390fd5b6003600082815260200190815260200160002060000160009054906101000a900473ffffffffffffffffffffffffffffffffffffffff1673ffffffffffffffffffffffffffffffffffffffff163373ffffffffffffffffffffffffffffffffffffffff161461049d576040517f08c379a0000000000000000000000000000000000000000000000000000000008152600401610494906116c3565b60405180910390fd5b600360008281526020019081526020016000206002015434146104f5576040517f08c379a00000000000000000000000000000000000000000000000000000000081526004016104ec90611683565b60405180910390fd5b6000151560003373ffffffffffffffffffffffffffffffffffffffff163b11151514610556576040517f08c379a000000000000000000000000000000000000000000000000000000000815260040161054d90611763565b60405180910390fd5b600015156003600083815260200190815260200160002060040160009054906101000a900460ff161515146105c0576040517f08c379a00000000000000000000000000000000000000000000000000000000081526004016105b790611643565b60405180910390fd5b34600260008282546105d291906117fe565b9250508190555060016003600083815260200190815260200160002060040160006101000a81548160ff021916908315150217905550807f907fece23ce39fbcbceb71e515043fe29408353fbb393b25b35eb8a70a4bad0b600360008481526020019081526020016000206002015460405161064e919061179e565b60405180910390a250565b610661610fcd565b61066b600061104b565b565b610675610fcd565b600073ffffffffffffffffffffffffffffffffffffffff168473ffffffffffffffffffffffffffffffffffffffff16141580156106df5750600073ffffffffffffffffffffffffffffffffffffffff168373ffffffffffffffffffffffffffffffffffffffff1614155b61071e576040517f08c379a0000000000000000000000000000000000000000000000000000000008152600401610715906115e3565b60405180910390fd5b6000600360008781526020019081526020016000206002015414610777576040517f08c379a000000000000000000000000000000000000000000000000000000000815260040161076e90611743565b60405180910390fd5b8273ffffffffffffffffffffffffffffffffffffffff168473ffffffffffffffffffffffffffffffffffffffff1614156107e6576040517f08c379a00000000000000000000000000000000000000000000000000000000081526004016107dd906116a3565b60405180910390fd5b60008211610829576040517f08c379a0000000000000000000000000000000000000000000000000000000008152600401610820906116e3565b60405180910390fd5b6000811161086c576040517f08c379a000000000000000000000000000000000000000000000000000000000815260040161086390611703565b60405180910390fd5b60006040518060c001604052808673ffffffffffffffffffffffffffffffffffffffff1681526020018573ffffffffffffffffffffffffffffffffffffffff168152602001848152602001838152602001600015158152602001600015158152509050806003600088815260200190815260200160002060008201518160000160006101000a81548173ffffffffffffffffffffffffffffffffffffffff021916908373ffffffffffffffffffffffffffffffffffffffff16021790555060208201518160010160006101000a81548173ffffffffffffffffffffffffffffffffffffffff021916908373ffffffffffffffffffffffffffffffffffffffff160217905550604082015181600201556060820151816003015560808201518160040160006101000a81548160ff02191690831515021790555060a08201518160040160016101000a81548160ff0219169083151502179055509050508373ffffffffffffffffffffffffffffffffffffffff168573ffffffffffffffffffffffffffffffffffffffff16877f41dcd82db4f6ae0db2c5ed4001626f23f81ebdd28158b1d99ccfac501dfd8af08686604051610a289291906117b9565b60405180910390a4505050505050565b60008060009054906101000a900473ffffffffffffffffffffffffffffffffffffffff16905090565b610a69610fcd565b6000600360008381526020019081526020016000206002015411610ac2576040517f08c379a0000000000000000000000000000000000000000000000000000000008152600401610ab990611623565b60405180910390fd5b600115156003600083815260200190815260200160002060040160009054906101000a900460ff16151514610b2c576040517f08c379a0000000000000000000000000000000000000000000000000000000008152600401610b2390611603565b60405180910390fd5b600015156003600083815260200190815260200160002060040160019054906101000a900460ff16151514610b96576040517f08c379a0000000000000000000000000000000000000000000000000000000008152600401610b8d90611603565b60405180910390fd5b60006003600083815260200190815260200160002060010160009054906101000a900473ffffffffffffffffffffffffffffffffffffffff1690508073ffffffffffffffffffffffffffffffffffffffff166108fc60036000858152602001908152602001600020600201549081150290604051600060405180830381858888f19350505050158015610c2d573d6000803e3d6000fd5b50600360008381526020019081526020016000206002015460026000828254610c569190611854565b9250508190555060016003600084815260200190815260200160002060040160016101000a81548160ff0219169083151502179055506003600083815260200190815260200160002060010160009054906101000a900473ffffffffffffffffffffffffffffffffffffffff1673ffffffffffffffffffffffffffffffffffffffff166003600084815260200190815260200160002060000160009054906101000a900473ffffffffffffffffffffffffffffffffffffffff1673ffffffffffffffffffffffffffffffffffffffff16837fb1b9258bbacb7a165db855862dffc472df9f7de7e998193f11f7f00f5ba37d0160036000878152602001908152602001600020600201546003600088815260200190815260200160002060030154604051610d849291906117b9565b60405180910390a45050565b60036020528060005260406000206000915090508060000160009054906101000a900473ffffffffffffffffffffffffffffffffffffffff16908060010160009054906101000a900473ffffffffffffffffffffffffffffffffffffffff16908060020154908060030154908060040160009054906101000a900460ff16908060040160019054906101000a900460ff16905086565b610e2e610fcd565b600073ffffffffffffffffffffffffffffffffffffffff168173ffffffffffffffffffffffffffffffffffffffff161415610e9e576040517f08c379a0000000000000000000000000000000000000000000000000000000008152600401610e9590611663565b60405180910390fd5b610ea78161104b565b50565b610eb2611117565b600360008381526020019081526020016000206040518060c00160405290816000820160009054906101000a900473ffffffffffffffffffffffffffffffffffffffff1673ffffffffffffffffffffffffffffffffffffffff1673ffffffffffffffffffffffffffffffffffffffff1681526020016001820160009054906101000a900473ffffffffffffffffffffffffffffffffffffffff1673ffffffffffffffffffffffffffffffffffffffff1673ffffffffffffffffffffffffffffffffffffffff16815260200160028201548152602001600382015481526020016004820160009054906101000a900460ff161515151581526020016004820160019054906101000a900460ff1615151515815250509050919050565b610fd561110f565b73ffffffffffffffffffffffffffffffffffffffff16610ff3610a38565b73ffffffffffffffffffffffffffffffffffffffff1614611049576040517f08c379a000000000000000000000000000000000000000000000000000000000815260040161104090611723565b60405180910390fd5b565b60008060009054906101000a900473ffffffffffffffffffffffffffffffffffffffff169050816000806101000a81548173ffffffffffffffffffffffffffffffffffffffff021916908373ffffffffffffffffffffffffffffffffffffffff1602179055508173ffffffffffffffffffffffffffffffffffffffff168173ffffffffffffffffffffffffffffffffffffffff167f8be0079c531659141344cd1fd0a4f28419497f9722a3daafe3b4186f6b6457e060405160405180910390a35050565b600033905090565b6040518060c00160405280600073ffffffffffffffffffffffffffffffffffffffff168152602001600073ffffffffffffffffffffffffffffffffffffffff16815260200160008152602001600081526020016000151581526020016000151581525090565b60008135905061118c81611c2b565b92915050565b6000813590506111a181611c42565b92915050565b6000602082840312156111b957600080fd5b60006111c78482850161117d565b91505092915050565b6000602082840312156111e257600080fd5b60006111f084828501611192565b91505092915050565b600080600080600060a0868803121561121157600080fd5b600061121f88828901611192565b95505060206112308882890161117d565b94505060406112418882890161117d565b935050606061125288828901611192565b925050608061126388828901611192565b9150509295509295909350565b61127981611888565b82525050565b61128881611888565b82525050565b6112978161189a565b82525050565b6112a68161189a565b82525050565b60006112b7826117e2565b6112c181856117ed565b93506112d18185602086016118d0565b6112da81611993565b840191505092915050565b60006112f26029836117ed565b91506112fd826119a4565b604082019050919050565b6000611315601b836117ed565b9150611320826119f3565b602082019050919050565b60006113386010836117ed565b915061134382611a1c565b602082019050919050565b600061135b601c836117ed565b915061136682611a45565b602082019050919050565b600061137e6026836117ed565b915061138982611a6e565b604082019050919050565b60006113a1600e836117ed565b91506113ac82611abd565b602082019050919050565b60006113c4602f836117ed565b91506113cf82611ae6565b604082019050919050565b60006113e7600e836117ed565b91506113f282611b35565b602082019050919050565b600061140a6015836117ed565b915061141582611b5e565b602082019050919050565b600061142d6019836117ed565b915061143882611b87565b602082019050919050565b60006114506020836117ed565b915061145b82611bb0565b602082019050919050565b6000611473601f836117ed565b915061147e82611bd9565b602082019050919050565b6000611496601b836117ed565b91506114a182611c02565b602082019050919050565b60c0820160008201516114c26000850182611270565b5060208201516114d56020850182611270565b5060408201516114e86040850182611527565b5060608201516114fb6060850182611527565b50608082015161150e608085018261128e565b5060a082015161152160a085018261128e565b50505050565b611530816118c6565b82525050565b61153f816118c6565b82525050565b600060208201905061155a600083018461127f565b92915050565b600060c082019050611575600083018961127f565b611582602083018861127f565b61158f6040830187611536565b61159c6060830186611536565b6115a9608083018561129d565b6115b660a083018461129d565b979650505050505050565b600060208201905081810360008301526115db81846112ac565b905092915050565b600060208201905081810360008301526115fc816112e5565b9050919050565b6000602082019050818103600083015261161c81611308565b9050919050565b6000602082019050818103600083015261163c8161132b565b9050919050565b6000602082019050818103600083015261165c8161134e565b9050919050565b6000602082019050818103600083015261167c81611371565b9050919050565b6000602082019050818103600083015261169c81611394565b9050919050565b600060208201905081810360008301526116bc816113b7565b9050919050565b600060208201905081810360008301526116dc816113da565b9050919050565b600060208201905081810360008301526116fc816113fd565b9050919050565b6000602082019050818103600083015261171c81611420565b9050919050565b6000602082019050818103600083015261173c81611443565b9050919050565b6000602082019050818103600083015261175c81611466565b9050919050565b6000602082019050818103600083015261177c81611489565b9050919050565b600060c08201905061179860008301846114ac565b92915050565b60006020820190506117b36000830184611536565b92915050565b60006040820190506117ce6000830185611536565b6117db6020830184611536565b9392505050565b600081519050919050565b600082825260208201905092915050565b6000611809826118c6565b9150611814836118c6565b9250827fffffffffffffffffffffffffffffffffffffffffffffffffffffffffffffffff0382111561184957611848611935565b5b828201905092915050565b600061185f826118c6565b915061186a836118c6565b92508282101561187d5761187c611935565b5b828203905092915050565b6000611893826118a6565b9050919050565b60008115159050919050565b600073ffffffffffffffffffffffffffffffffffffffff82169050919050565b6000819050919050565b60005b838110156118ee5780820151818401526020810190506118d3565b838111156118fd576000848401525b50505050565b6000600282049050600182168061191b57607f821691505b6020821081141561192f5761192e611964565b5b50919050565b7f4e487b7100000000000000000000000000000000000000000000000000000000600052601160045260246000fd5b7f4e487b7100000000000000000000000000000000000000000000000000000000600052602260045260246000fd5b6000601f19601f8301169050919050565b7f53656e646572206f722072656365697665722063616e6e6f74206265207a657260008201527f6f20616464726573730000000000000000000000000000000000000000000000602082015250565b7f4572726f7220696e207472616e73616374696f6e207374617475730000000000600082015250565b7f5265636f7264206e6f7420666f756e6400000000000000000000000000000000600082015250565b7f46756e642068617320616c7265616479206265656e206c6f636b656400000000600082015250565b7f4f776e61626c653a206e6577206f776e657220697320746865207a65726f206160008201527f6464726573730000000000000000000000000000000000000000000000000000602082015250565b7f496e76616c696420616d6f756e74000000000000000000000000000000000000600082015250565b7f53656e64657220616e64207265636569766572206d757374206265206469666660008201527f6572656e74206164647265737365730000000000000000000000000000000000602082015250565b7f496e76616c69642073656e646572000000000000000000000000000000000000600082015250565b7f416d6f756e742063616e6e6f74206265207a65726f0000000000000000000000600082015250565b7f466961742076616c75652063616e6e6f74206265207a65726f00000000000000600082015250565b7f4f776e61626c653a2063616c6c6572206973206e6f7420746865206f776e6572600082015250565b7f5265636f726420616c726561647920686173206265656e206372656174656400600082015250565b7f43616c6c65722063616e6e6f74206265206120636f6e74726163740000000000600082015250565b611c3481611888565b8114611c3f57600080fd5b50565b611c4b816118c6565b8114611c5657600080fd5b5056fea2646970667358221220b51757bfd76fbc1a2c88dff9c4c12ec010f19d2809c08b19152d8989485f03b964736f6c63430008040033",
  "linkReferences": {},
  "deployedLinkReferences": {}
}